{
  "abi": [
    {
      "type": "constructor",
      "inputs": [
        {
          "name": "_owner",
          "type": "address",
          "internalType": "address"
        },
        {
          "name": "_house",
          "type": "address",
          "internalType": "address"
        }
      ],
      "stateMutability": "payable"
    },
    {
      "type": "function",
      "name": "ENTRY_FEE",
      "inputs": [],
      "outputs": [
        {
          "name": "",
          "type": "uint256",
          "internalType": "uint256"
        }
      ],
      "stateMutability": "view"
    },
    {
      "type": "function",
      "name": "HOUSE_CUT",
      "inputs": [],
      "outputs": [
        {
          "name": "",
          "type": "uint256",
          "internalType": "uint256"
        }
      ],
      "stateMutability": "view"
    },
    {
      "type": "function",
      "name": "PRECISION",
      "inputs": [],
      "outputs": [
        {
          "name": "",
          "type": "uint256",
          "internalType": "uint256"
        }
      ],
      "stateMutability": "view"
    },
    {
      "type": "function",
      "name": "WIN_PERCENTAGE",
      "inputs": [],
      "outputs": [
        {
          "name": "",
          "type": "uint256",
          "internalType": "uint256"
        }
      ],
      "stateMutability": "view"
    },
    {
      "type": "function",
      "name": "claimWinnings",
      "inputs": [
        {
          "name": "_gameNonce",
          "type": "uint256",
          "internalType": "uint256"
        }
      ],
      "outputs": [],
      "stateMutability": "nonpayable"
    },
    {
      "type": "function",
      "name": "endGame",
      "inputs": [
        {
          "name": "_player",
          "type": "address",
          "internalType": "address"
        },
        {
          "name": "_isWinner",
          "type": "bool",
          "internalType": "bool"
        }
      ],
      "outputs": [],
      "stateMutability": "nonpayable"
    },
    {
      "type": "function",
      "name": "fundPool",
      "inputs": [],
      "outputs": [],
      "stateMutability": "payable"
    },
    {
      "type": "function",
      "name": "gameNonce",
      "inputs": [],
      "outputs": [
        {
          "name": "",
          "type": "uint256",
          "internalType": "uint256"
        }
      ],
      "stateMutability": "view"
    },
    {
      "type": "function",
      "name": "hasClaimed",
      "inputs": [
        {
          "name": "",
          "type": "uint256",
          "internalType": "uint256"
        }
      ],
      "outputs": [
        {
          "name": "",
          "type": "bool",
          "internalType": "bool"
        }
      ],
      "stateMutability": "view"
    },
    {
      "type": "function",
      "name": "house",
      "inputs": [],
      "outputs": [
        {
          "name": "",
          "type": "address",
          "internalType": "address"
        }
      ],
      "stateMutability": "view"
    },
    {
      "type": "function",
      "name": "houseTake",
      "inputs": [],
      "outputs": [
        {
          "name": "",
          "type": "uint256",
          "internalType": "uint256"
        }
      ],
      "stateMutability": "view"
    },
    {
      "type": "function",
      "name": "isPlaying",
      "inputs": [
        {
          "name": "",
          "type": "address",
          "internalType": "address"
        }
      ],
      "outputs": [
        {
          "name": "",
          "type": "bool",
          "internalType": "bool"
        }
      ],
      "stateMutability": "view"
    },
    {
      "type": "function",
      "name": "owner",
      "inputs": [],
      "outputs": [
        {
          "name": "",
          "type": "address",
          "internalType": "address"
        }
      ],
      "stateMutability": "view"
    },
    {
      "type": "function",
      "name": "play",
      "inputs": [],
      "outputs": [],
      "stateMutability": "payable"
    },
    {
      "type": "function",
      "name": "playerWinnings",
      "inputs": [
        {
          "name": "",
          "type": "uint256",
          "internalType": "uint256"
        },
        {
          "name": "",
          "type": "address",
          "internalType": "address"
        }
      ],
      "outputs": [
        {
          "name": "",
          "type": "uint256",
          "internalType": "uint256"
        }
      ],
      "stateMutability": "view"
    },
    {
      "type": "function",
      "name": "prizePool",
      "inputs": [],
      "outputs": [
        {
          "name": "",
          "type": "uint256",
          "internalType": "uint256"
        }
      ],
      "stateMutability": "view"
    },
    {
      "type": "function",
      "name": "renounceOwnership",
      "inputs": [],
      "outputs": [],
      "stateMutability": "nonpayable"
    },
    {
      "type": "function",
      "name": "transferOwnership",
      "inputs": [
        {
          "name": "newOwner",
          "type": "address",
          "internalType": "address"
        }
      ],
      "outputs": [],
      "stateMutability": "nonpayable"
    },
    {
      "type": "function",
      "name": "withdrawHouseTake",
      "inputs": [
        {
          "name": "_recipient",
          "type": "address",
          "internalType": "address"
        }
      ],
      "outputs": [],
      "stateMutability": "nonpayable"
    },
    {
      "type": "event",
      "name": "Entered",
      "inputs": [
        {
          "name": "player",
          "type": "address",
          "indexed": true,
          "internalType": "address"
        }
      ],
      "anonymous": false
    },
    {
      "type": "event",
      "name": "HouseTakeWithdrawn",
      "inputs": [
        {
          "name": "recipient",
          "type": "address",
          "indexed": true,
          "internalType": "address"
        },
        {
          "name": "amount",
          "type": "uint256",
          "indexed": false,
          "internalType": "uint256"
        }
      ],
      "anonymous": false
    },
    {
      "type": "event",
      "name": "Lose",
      "inputs": [
        {
          "name": "player",
          "type": "address",
          "indexed": true,
          "internalType": "address"
        }
      ],
      "anonymous": false
    },
    {
      "type": "event",
      "name": "OwnershipTransferred",
      "inputs": [
        {
          "name": "previousOwner",
          "type": "address",
          "indexed": true,
          "internalType": "address"
        },
        {
          "name": "newOwner",
          "type": "address",
          "indexed": true,
          "internalType": "address"
        }
      ],
      "anonymous": false
    },
    {
      "type": "event",
      "name": "PoolFunded",
      "inputs": [
        {
          "name": "amount",
          "type": "uint256",
          "indexed": false,
          "internalType": "uint256"
        }
      ],
      "anonymous": false
    },
    {
      "type": "event",
      "name": "Win",
      "inputs": [
        {
          "name": "winner",
          "type": "address",
          "indexed": true,
          "internalType": "address"
        },
        {
          "name": "amount",
          "type": "uint256",
          "indexed": true,
          "internalType": "uint256"
        },
        {
          "name": "nonce",
          "type": "uint256",
          "indexed": true,
          "internalType": "uint256"
        }
      ],
      "anonymous": false
    },
    {
      "type": "event",
      "name": "WinningsClaimed",
      "inputs": [
        {
          "name": "winner",
          "type": "address",
          "indexed": true,
          "internalType": "address"
        },
        {
          "name": "amount",
          "type": "uint256",
          "indexed": true,
          "internalType": "uint256"
        },
        {
          "name": "nonce",
          "type": "uint256",
          "indexed": true,
          "internalType": "uint256"
        }
      ],
      "anonymous": false
    },
    {
      "type": "error",
      "name": "BombGame__AlreadyClaimed",
      "inputs": []
    },
    {
      "type": "error",
      "name": "BombGame__AlreadyPlaying",
      "inputs": []
    },
    {
      "type": "error",
      "name": "BombGame__InsufficientBalance",
      "inputs": []
    },
    {
      "type": "error",
      "name": "BombGame__InvalidEntryFee",
      "inputs": [
        {
          "name": "entryFee",
          "type": "uint256",
          "internalType": "uint256"
        }
      ]
    },
    {
      "type": "error",
      "name": "BombGame__NoHouseTake",
      "inputs": []
    },
    {
      "type": "error",
      "name": "BombGame__NoWinnings",
      "inputs": []
    },
    {
      "type": "error",
      "name": "BombGame__OnlyHouse",
      "inputs": []
    },
    {
      "type": "error",
      "name": "BombGame__PlayerNotActive",
      "inputs": []
    },
    {
      "type": "error",
      "name": "BombGame__TransferFailed",
      "inputs": []
    },
    {
      "type": "error",
      "name": "OwnableInvalidOwner",
      "inputs": [
        {
          "name": "owner",
          "type": "address",
          "internalType": "address"
        }
      ]
    },
    {
      "type": "error",
      "name": "OwnableUnauthorizedAccount",
      "inputs": [
        {
          "name": "account",
          "type": "address",
          "internalType": "address"
        }
      ]
    }
  ],
  "bytecode": {
    "object": "0x60a0604052604051610bb0380380610bb0833981016040819052610022916100dd565b816001600160a01b03811661005157604051631e4fbdf760e01b81526000600482015260240160405180910390fd5b61005a81610071565b506001600160a01b03166080525034600155610110565b600080546001600160a01b038381166001600160a01b0319831681178455604051919092169283917f8be0079c531659141344cd1fd0a4f28419497f9722a3daafe3b4186f6b6457e09190a35050565b80516001600160a01b03811681146100d857600080fd5b919050565b600080604083850312156100f057600080fd5b6100f9836100c1565b9150610107602084016100c1565b90509250929050565b608051610a7e6101326000396000818161035e015261038b0152610a7e6000f3fe6080604052600436106101145760003560e01c806393e84cd9116100a0578063ce51650711610064578063ce516507146102cb578063d945d53f146102fb578063f2fde38b14610311578063f6d361cc14610331578063ff9b3acf1461034c57600080fd5b806393e84cd91461024157806393ffb100146102495780639661578e1461025f578063aaf5eb6814610275578063b76656131461028b57600080fd5b8063677bd9ff116100e7578063677bd9ff146101bc57806370f37d27146101dc578063715018a6146101e4578063719ce73e146101f95780638da5cb5b1461020f57600080fd5b806316e8f379146101195780633e3c2c821461013b5780634ae332751461015b5780636725372b14610184575b600080fd5b34801561012557600080fd5b50610139610134366004610911565b610380565b005b34801561014757600080fd5b50610139610156366004610933565b6104ad565b34801561016757600080fd5b50610171611b1e81565b6040519081526020015b60405180910390f35b34801561019057600080fd5b5061017161019f36600461096f565b600560209081526000928352604080842090915290825290205481565b3480156101c857600080fd5b506101396101d736600461099b565b610630565b610139610715565b3480156101f057600080fd5b50610139610761565b34801561020557600080fd5b5061017160015481565b34801561021b57600080fd5b506000546001600160a01b03165b6040516001600160a01b03909116815260200161017b565b610139610775565b34801561025557600080fd5b5061017160035481565b34801561026b57600080fd5b5061017160025481565b34801561028157600080fd5b5061017161271081565b34801561029757600080fd5b506102bb6102a6366004610911565b60046020526000908152604090205460ff1681565b604051901515815260200161017b565b3480156102d757600080fd5b506102bb6102e636600461099b565b60066020526000908152604090205460ff1681565b34801561030757600080fd5b506101716103e881565b34801561031d57600080fd5b5061013961032c366004610911565b61083a565b34801561033d57600080fd5b506101716602738d24e5200081565b34801561035857600080fd5b506102297f000000000000000000000000000000000000000000000000000000000000000081565b336001600160a01b037f000000000000000000000000000000000000000000000000000000000000000016146103c957604051633c38a23360e01b815260040160405180910390fd5b6002546000036103ec57604051639df74d4560e01b815260040160405180910390fd5b6002805460009091556040518181526001600160a01b038316907f3ed40af48f4150069c4dc17e3f0ab5cb83aed3fc5f797123d916aabad7ec350f9060200160405180910390a26000826001600160a01b0316826040515b60006040518083038185875af1925050503d8060008114610481576040519150601f19603f3d011682016040523d82523d6000602084013e610486565b606091505b50509050806104a8576040516333b08e1d60e21b815260040160405180910390fd5b505050565b6104b5610878565b6001600160a01b03821660009081526004602052604090205460ff166104ee57604051631b0207a960e21b815260040160405180910390fd5b6001600160a01b0382166000908152600460205260409020805460ff191690558061054b576040516001600160a01b038316907f7a75b74c46870f067801baf9792b808a187f20ff480472a2169f637ba69e5c6990600090a25050565b6003805490600061055b836109ca565b909155506001546000906127109061057690611b1e906109e3565b6105809190610a00565b905060006127106103e860015461059791906109e3565b6105a19190610a00565b905080826001546105b29190610a22565b6105bc9190610a22565b60018190555080600260008282546105d49190610a35565b909155505060008381526005602090815260408083206001600160a01b03891680855292528083208590555185928592917f1547adaaf63fc61e99e29577a820d1c7626e8de63d1cb5830d0edbf3951aeb5c9190a45050505050565b60008181526006602052604090205460ff161561066057604051631c4a530760e31b815260040160405180910390fd5b60008181526005602090815260408083203384529091528120549081900361069b57604051632216cd8d60e21b815260040160405180910390fd5b600082815260066020526040808220805460ff19166001179055518391839133917f7472e24de4628e34b41a2aa1688ed4b46a9145b2de1cf93d74902473ccc1740d91a48047101561070057604051630de4192560e01b815260040160405180910390fd5b6000336001600160a01b031682604051610444565b34600160008282546107279190610a35565b90915550506040513481527fd20389ec208fde395624b8221fa1cae9211e46a6ba77134c8e0b1af8c96033989060200160405180910390a1565b610769610878565b61077360006108a5565b565b6602738d24e5200034146107aa576040516306758d8d60e51b81526602738d24e5200060048201526024015b60405180910390fd5b3360009081526004602052604090205460ff16156107db57604051630babb8e960e11b815260040160405180910390fd5b336000908152600460205260408120805460ff191660019081179091558054349290610808908490610a35565b909155505060405133907f9d8f2d54c1a8ffb26973551e72794da9bd5b8529f24c494a6f1590d35d5e8ecf90600090a2565b610842610878565b6001600160a01b03811661086c57604051631e4fbdf760e01b8152600060048201526024016107a1565b610875816108a5565b50565b6000546001600160a01b031633146107735760405163118cdaa760e01b81523360048201526024016107a1565b600080546001600160a01b038381166001600160a01b0319831681178455604051919092169283917f8be0079c531659141344cd1fd0a4f28419497f9722a3daafe3b4186f6b6457e09190a35050565b80356001600160a01b038116811461090c57600080fd5b919050565b60006020828403121561092357600080fd5b61092c826108f5565b9392505050565b6000806040838503121561094657600080fd5b61094f836108f5565b91506020830135801515811461096457600080fd5b809150509250929050565b6000806040838503121561098257600080fd5b82359150610992602084016108f5565b90509250929050565b6000602082840312156109ad57600080fd5b5035919050565b634e487b7160e01b600052601160045260246000fd5b6000600182016109dc576109dc6109b4565b5060010190565b80820281158282048414176109fa576109fa6109b4565b92915050565b600082610a1d57634e487b7160e01b600052601260045260246000fd5b500490565b818103818111156109fa576109fa6109b4565b808201808211156109fa576109fa6109b456fea2646970667358221220461e2b024ab8ea0128c71cc3dd4c452908b81770d545e695748047676b97eac964736f6c63430008170033",
    "linkReferences": {}
  },
  "methodIdentifiers": {
    "ENTRY_FEE()": "f6d361cc",
    "HOUSE_CUT()": "d945d53f",
    "PRECISION()": "aaf5eb68",
    "WIN_PERCENTAGE()": "4ae33275",
    "claimWinnings(uint256)": "677bd9ff",
    "endGame(address,bool)": "3e3c2c82",
    "fundPool()": "70f37d27",
    "gameNonce()": "93ffb100",
    "hasClaimed(uint256)": "ce516507",
    "house()": "ff9b3acf",
    "houseTake()": "9661578e",
    "isPlaying(address)": "b7665613",
    "owner()": "8da5cb5b",
    "play()": "93e84cd9",
    "playerWinnings(uint256,address)": "6725372b",
    "prizePool()": "719ce73e",
    "renounceOwnership()": "715018a6",
    "transferOwnership(address)": "f2fde38b",
    "withdrawHouseTake(address)": "16e8f379"
  },
  "id": 27
}